{
  "address": "0x9BF5C9A4FaeE3D65a21c7b80dE58701fdfae5279",
  "abi": [
    {
      "inputs": [],
      "name": "initialize",
      "outputs": [],
      "stateMutability": "nonpayable",
      "type": "function"
    },
    {
      "inputs": [
        {
          "internalType": "address[]",
          "name": "_token",
          "type": "address[]"
        },
        {
          "internalType": "uint256[]",
          "name": "proportion",
          "type": "uint256[]"
        },
        {
          "internalType": "bool[]",
          "name": "isBetterUniswap",
          "type": "bool[]"
        }
      ],
      "name": "internalSwapper",
      "outputs": [],
      "stateMutability": "payable",
      "type": "function"
    }
  ],
  "transactionHash": "0x264a6319edc370b393b9669fd3b53242b791302b567d9cafc07069c98ea038ea",
  "args": [],
  "solcInputHash": "882c9d38b76a1d9ffb881b2817a49387",
  "bytecode": "0x608060405234801561001057600080fd5b50610b78806100206000396000f3fe6080604052600436106100295760003560e01c80638129fc1c1461002e578063fbd5b72714610045575b600080fd5b34801561003a57600080fd5b50610043610058565b005b6100436100533660046107ff565b610110565b600054610100900460ff1680610071575060005460ff16155b6100d95760405162461bcd60e51b815260206004820152602e60248201527f496e697469616c697a61626c653a20636f6e747261637420697320616c72656160448201526d191e481a5b9a5d1a585b1a5e995960921b60648201526084015b60405180910390fd5b600054610100900460ff161580156100fb576000805461ffff19166101011790555b801561010d576000805461ff00191690555b50565b81518351148015610122575080518351145b61017f5760405162461bcd60e51b815260206004820152602860248201527f596f75206d7573742073657420612070726f706f7274696f6e20666f7220656160448201526731b4103a37b5b2b760c11b60648201526084016100d0565b6000341180156101a557503461019761271082610a82565b6101a390612710610aa2565b145b6101e95760405162461bcd60e51b815260206004820152601560248201527454686520616d6f756e7420697320746f6f206c6f7760581b60448201526064016100d0565b825160005b8181101561070057600061271085838151811061021b57634e487b7160e01b600052603260045260246000fd5b6020026020010151606461022f9190610aa2565b6102399034610aa2565b6102439190610a82565b9050600061025361271083610a82565b905060006102618284610ac1565b60405190915073d215de1fc9e2514cf274df3f2378597c7be06aca9083156108fc029084906000818181858888f193505050501580156102a5573d6000803e3d6000fd5b508584815181106102c657634e487b7160e01b600052603260045260246000fd5b6020026020010151156104c257604080516002808252606082018352600092602083019080368337019050509050737a250d5630b4cf539739df2c5dacb4c659f2488d6001600160a01b031663ad5c46486040518163ffffffff1660e01b815260040160206040518083038186803b15801561034157600080fd5b505afa158015610355573d6000803e3d6000fd5b505050506040513d601f19601f8201168201806040525081019061037991906107dc565b8160008151811061039a57634e487b7160e01b600052603260045260246000fd5b60200260200101906001600160a01b031690816001600160a01b0316815250508885815181106103da57634e487b7160e01b600052603260045260246000fd5b60200260200101518160018151811061040357634e487b7160e01b600052603260045260246000fd5b6001600160a01b0390921660209283029190910190910152737a250d5630b4cf539739df2c5dacb4c659f2488d637ff36ab583600184336104464261012c610a6a565b6040518663ffffffff1660e01b815260040161046594939291906109ac565b6000604051808303818588803b15801561047e57600080fd5b505af1158015610492573d6000803e3d6000fd5b50505050506040513d6000823e601f3d908101601f191682016040526104bb91908101906108e5565b50506106ea565b60008885815181106104e457634e487b7160e01b600052603260045260246000fd5b60200260200101519050733e66b66fd1d0b02fda6c811da9e0547970db2f216001600160a01b03166321b0eb858373eeeeeeeeeeeeeeeeeeeeeeeeeeeeeeeeeeeeeeee8c898151811061054757634e487b7160e01b600052603260045260246000fd5b60209081029190910101516040516001600160e01b031960e086901b1681526001600160a01b0392831660048201529116602482015260448101869052600160648201819052608482015260a4016020604051808303818588803b1580156105ae57600080fd5b505af11580156105c2573d6000803e3d6000fd5b50505050506040513d601f19601f820116820180604052508101906105e79190610994565b506040516370a0823160e01b81523060048201526001600160a01b0382169063a9059cbb90339083906370a082319060240160206040518083038186803b15801561063157600080fd5b505afa158015610645573d6000803e3d6000fd5b505050506040513d601f19601f820116820180604052508101906106699190610994565b6040516001600160e01b031960e085901b1681526001600160a01b0390921660048301526024820152604401602060405180830381600087803b1580156106af57600080fd5b505af11580156106c3573d6000803e3d6000fd5b505050506040513d601f19601f820116820180604052508101906106e79190610978565b50505b50505080806106f890610ad8565b9150506101ee565b5050505050565b600082601f830112610717578081fd5b8135602061072c61072783610a46565b610a15565b80838252828201915082860187848660051b890101111561074b578586fd5b855b8581101561077257813561076081610b34565b8452928401929084019060010161074d565b5090979650505050505050565b600082601f83011261078f578081fd5b8135602061079f61072783610a46565b80838252828201915082860187848660051b89010111156107be578586fd5b855b85811015610772578135845292840192908401906001016107c0565b6000602082840312156107ed578081fd5b81516107f881610b1f565b9392505050565b600080600060608486031215610813578182fd5b833567ffffffffffffffff8082111561082a578384fd5b818601915086601f83011261083d578384fd5b8135602061084d61072783610a46565b8083825282820191508286018b848660051b890101111561086c578889fd5b8896505b8487101561089757803561088381610b1f565b835260019690960195918301918301610870565b50975050870135925050808211156108ad578384fd5b6108b98783880161077f565b935060408601359150808211156108ce578283fd5b506108db86828701610707565b9150509250925092565b600060208083850312156108f7578182fd5b825167ffffffffffffffff81111561090d578283fd5b8301601f8101851361091d578283fd5b805161092b61072782610a46565b80828252848201915084840188868560051b870101111561094a578687fd5b8694505b8385101561096c57805183526001949094019391850191850161094e565b50979650505050505050565b600060208284031215610989578081fd5b81516107f881610b34565b6000602082840312156109a5578081fd5b5051919050565b600060808201868352602060808185015281875180845260a0860191508289019350845b818110156109f55784516001600160a01b0316835293830193918301916001016109d0565b50506001600160a01b039690961660408501525050506060015292915050565b604051601f8201601f1916810167ffffffffffffffff81118282101715610a3e57610a3e610b09565b604052919050565b600067ffffffffffffffff821115610a6057610a60610b09565b5060051b60200190565b60008219821115610a7d57610a7d610af3565b500190565b600082610a9d57634e487b7160e01b81526012600452602481fd5b500490565b6000816000190483118215151615610abc57610abc610af3565b500290565b600082821015610ad357610ad3610af3565b500390565b6000600019821415610aec57610aec610af3565b5060010190565b634e487b7160e01b600052601160045260246000fd5b634e487b7160e01b600052604160045260246000fd5b6001600160a01b038116811461010d57600080fd5b801515811461010d57600080fdfea2646970667358221220a9a91d765f2994592d9dbfa042a16a31018579fffda378f0a79dd0c435b1347764736f6c63430008040033",
  "devdoc": {
    "kind": "dev",
    "methods": {},
    "version": 1
  },
  "userdoc": {
    "kind": "user",
    "methods": {},
    "version": 1
  },
  "storageLayout": {
    "storage": [
      {
        "astId": 5,
        "contract": "contracts/SwapperV2.sol:SwapperV2",
        "label": "_initialized",
        "offset": 0,
        "slot": "0",
        "type": "t_bool"
      },
      {
        "astId": 8,
        "contract": "contracts/SwapperV2.sol:SwapperV2",
        "label": "_initializing",
        "offset": 1,
        "slot": "0",
        "type": "t_bool"
      }
    ],
    "types": {
      "t_bool": {
        "encoding": "inplace",
        "label": "bool",
        "numberOfBytes": "1"
      }
    }
  }
}