{
  "address": "0xa2444Ec87176739cC052F54fD32E63b5e49f19fb",
  "abi": [
    {
      "inputs": [],
      "name": "initialize",
      "outputs": [],
      "stateMutability": "nonpayable",
      "type": "function"
    },
    {
      "inputs": [
        {
          "internalType": "address[]",
          "name": "_token",
          "type": "address[]"
        },
        {
          "internalType": "uint256[]",
          "name": "proportion",
          "type": "uint256[]"
        }
      ],
      "name": "internalSwapper",
      "outputs": [],
      "stateMutability": "payable",
      "type": "function"
    }
  ],
  "transactionHash": "0xd8a67f6dbd0721c436a8db7ebff9c46dc23f02669697f50e66455885b054e73c",
  "args": [],
  "solcInputHash": "882c9d38b76a1d9ffb881b2817a49387",
  "bytecode": "0x608060405234801561001057600080fd5b5061083f806100206000396000f3fe6080604052600436106100295760003560e01c80632930df5b1461002e5780638129fc1c14610043575b600080fd5b61004161003c36600461052b565b610058565b005b34801561004f57600080fd5b506100416103e6565b80518251146100bf5760405162461bcd60e51b815260206004820152602860248201527f596f75206d7573742073657420612070726f706f7274696f6e20666f7220656160448201526731b4103a37b5b2b760c11b60648201526084015b60405180910390fd5b6000341180156100e55750346100d761271082610757565b6100e390612710610777565b145b6101295760405162461bcd60e51b815260206004820152601560248201527454686520616d6f756e7420697320746f6f206c6f7760581b60448201526064016100b6565b60408051600280825260608201835260009260208301908036833701905050835190915060005b818110156103df57600061271085838151811061017d57634e487b7160e01b600052603260045260246000fd5b602002602001015160646101919190610777565b61019b9034610777565b6101a59190610757565b905060006101b561271083610757565b9050737a250d5630b4cf539739df2c5dacb4c659f2488d6001600160a01b031663ad5c46486040518163ffffffff1660e01b815260040160206040518083038186803b15801561020457600080fd5b505afa158015610218573d6000803e3d6000fd5b505050506040513d601f19601f8201168201806040525081019061023c9190610508565b8560008151811061025d57634e487b7160e01b600052603260045260246000fd5b60200260200101906001600160a01b031690816001600160a01b03168152505086838151811061029d57634e487b7160e01b600052603260045260246000fd5b6020026020010151856001815181106102c657634e487b7160e01b600052603260045260246000fd5b6001600160a01b039092166020928302919091019091015260405173d215de1fc9e2514cf274df3f2378597c7be06aca9082156108fc029083906000818181858888f1935050505015801561031f573d6000803e3d6000fd5b50737a250d5630b4cf539739df2c5dacb4c659f2488d637ff36ab56103448385610796565b600188336103544261012c61073f565b6040518663ffffffff1660e01b81526004016103739493929190610681565b6000604051808303818588803b15801561038c57600080fd5b505af11580156103a0573d6000803e3d6000fd5b50505050506040513d6000823e601f3d908101601f191682016040526103c991908101906105ee565b50505080806103d7906107ad565b915050610150565b5050505050565b600054610100900460ff16806103ff575060005460ff16155b6104625760405162461bcd60e51b815260206004820152602e60248201527f496e697469616c697a61626c653a20636f6e747261637420697320616c72656160448201526d191e481a5b9a5d1a585b1a5e995960921b60648201526084016100b6565b600054610100900460ff16158015610484576000805461ffff19166101011790555b8015610496576000805461ff00191690555b50565b600082601f8301126104a9578081fd5b813560206104be6104b98361071b565b6106ea565b80838252828201915082860187848660051b89010111156104dd578586fd5b855b858110156104fb578135845292840192908401906001016104df565b5090979650505050505050565b600060208284031215610519578081fd5b8151610524816107f4565b9392505050565b6000806040838503121561053d578081fd5b823567ffffffffffffffff80821115610554578283fd5b818501915085601f830112610567578283fd5b813560206105776104b98361071b565b8083825282820191508286018a848660051b8901011115610596578788fd5b8796505b848710156105c15780356105ad816107f4565b83526001969096019591830191830161059a565b50965050860135925050808211156105d7578283fd5b506105e485828601610499565b9150509250929050565b60006020808385031215610600578182fd5b825167ffffffffffffffff811115610616578283fd5b8301601f81018513610626578283fd5b80516106346104b98261071b565b80828252848201915084840188868560051b8701011115610653578687fd5b8694505b83851015610675578051835260019490940193918501918501610657565b50979650505050505050565b600060808201868352602060808185015281875180845260a0860191508289019350845b818110156106ca5784516001600160a01b0316835293830193918301916001016106a5565b50506001600160a01b039690961660408501525050506060015292915050565b604051601f8201601f1916810167ffffffffffffffff81118282101715610713576107136107de565b604052919050565b600067ffffffffffffffff821115610735576107356107de565b5060051b60200190565b60008219821115610752576107526107c8565b500190565b60008261077257634e487b7160e01b81526012600452602481fd5b500490565b6000816000190483118215151615610791576107916107c8565b500290565b6000828210156107a8576107a86107c8565b500390565b60006000198214156107c1576107c16107c8565b5060010190565b634e487b7160e01b600052601160045260246000fd5b634e487b7160e01b600052604160045260246000fd5b6001600160a01b038116811461049657600080fdfea2646970667358221220cb2190d5f83d7cd1bffe143b84b6773531547746db1672cd5fca567c8216293764736f6c63430008040033",
  "devdoc": {
    "kind": "dev",
    "methods": {},
    "version": 1
  },
  "userdoc": {
    "kind": "user",
    "methods": {},
    "version": 1
  },
  "storageLayout": {
    "storage": [
      {
        "astId": 5,
        "contract": "contracts/SwapperV1.sol:SwapperV1",
        "label": "_initialized",
        "offset": 0,
        "slot": "0",
        "type": "t_bool"
      },
      {
        "astId": 8,
        "contract": "contracts/SwapperV1.sol:SwapperV1",
        "label": "_initializing",
        "offset": 1,
        "slot": "0",
        "type": "t_bool"
      }
    ],
    "types": {
      "t_bool": {
        "encoding": "inplace",
        "label": "bool",
        "numberOfBytes": "1"
      }
    }
  }
}